:020000040000FA
:1000000060030010A1010000A9010000AB01000085
:10001000AD010000AF010000B101000000000000D0
:10002000000000000000000000000000B30100001C
:10003000B501000000000000B7010000B901000098
:10004000BB010000BB010000BB010000BB010000C0
:10005000BB010000BB010000BB010000BB010000B0
:10006000BB010000BB010000BB010000BB010000A0
:10007000BB010000BB010000BB010000BB01000090
:10008000BB010000BB010000BB010000BB01000080
:10009000BB010000BB010000BB010000BB01000070
:1000A000BB010000BB010000BB010000BB01000060
:1000B000BB010000BB010000BB010000BB01000050
:1000C000BB010000BB010000BB01000000F002F812
:1000D00000F03CF80AA090E8000C82448344AAF1A6
:1000E0000107DA4501D100F031F8AFF2090EBAE8A4
:1000F0000F0013F0010F18BFFB1A43F0010318475C
:100100005807000078070000103A24BF78C878C16B
:10011000FAD8520724BF30C830C144BF04680C600D
:10012000704700000023002400250026103A28BF55
:1001300078C1FBD8520728BF30C148BF0B60704759
:100140001FB500F05AFB1FBD10B510BD00F05EFBDF
:100150001146FFF7F5FF00F0FAFA00F0B9F803B422
:10016000FFF7F2FF03BC00F0BDF800000B49D1F827
:1001700000C04A685CF8043B1068184442F8040B5D
:100180008C4528BFA1F1DC0C8A4228BFA1F1DC021A
:10019000C1F800C04A6020F000407047F80000102D
:1001A0000948804709480047FEE7FEE7FEE7FEE70B
:1001B000FEE7FEE7FEE7FEE7FEE7FEE70448054947
:1001C000034A054B70470000A9040000CD00000061
:1001D00060010010600300106001001053EA020C7F
:1001E00000F069802DE9F04B4FF00006002B1FBF97
:1001F000B3FA83F503FA05F424FA05F65E4012BF5C
:100200001643B2FA82F502FA05F4C5F120051EBFC5
:1002100022FA05FC44EA0C04203556EA044C4FEA65
:10022000144418BF641C4FF000084FF000099042BE
:1002300071EB030C39D3002919BFB1FA81F701FA28
:1002400007F6B0FA80F700FA07F6C7F120071EBFDD
:1002500020FA07FC46EA0C062037B6FBF4FCA7EBB5
:100260000507103F07F01F0BCBF120060CFA0BFB24
:100270002CFA06F644BFB3460026202FA4BF5E46E4
:100280004FF0000B5BEA060C08BF4FF0010B19EBB7
:100290000B09ABFB027C48EB0608C01B06FB02CC3B
:1002A0000BFB03CC71EB0C01C1E70B460246414648
:1002B0004846BDE8F08B13B54FF000004FF0000149
:1002C000AFF30080BDE81C4070477047704770472F
:1002D0000446AFF300802046FFF741FF0048704717
:1002E0000001001001491820ABBEFEE72600020005
:1002F000704700000000000000000000FFFFFFFF4B
:100300002DE9F047B1480068C0F3016003287CD1B3
:10031000AF48006810F0030006D0012833D002284F
:100320005FD003282ED100E000BFA8480068C0F3CA
:10033000074000F101044FF00201A648D0F8880000
:10034000C0F30E0000F10100A1FB0001A24B4FF031
:10035000000CA0FB037901FB039100FB0C1122466A
:1003600063463846FFF73AFF05469C480068C0B22E
:1003700000F1010422464FF000032846FFF72EFF4C
:10038000974908605DE091480068C0F3074000F1BC
:1003900001044FF002018F48D0F88800C0F30E002E
:1003A00000F10100A1FB00108E4A4FF0000CA1FBF0
:1003B000027900FB029001FB0C012246634638469D
:1003C000FFF70CFF054685480068C0B200F1010444
:1003D00022464FF000032846FFF700FF80490860DF
:1003E0002FE07A480068C0F3074000F101044FF0A5
:1003F00002017848D0F88800C0F30E0000F1010037
:10040000A1FB00124FF4004000E01BE04FF000039E
:10041000A1FB007902FB009001FB03012246384654
:10042000FFF7DCFE05466D480068C0B200F101042C
:1004300022464FF000032846FFF7D0FE68490860C7
:1004400000BF2FE06248006810F0030006D00128CA
:1004500010D0022819D0032823D100E000BF5F4844
:100460000068C0B200F101005B49B1FBF0F05C49EB
:10047000086016E059480068C0B200F1010059490F
:10048000B1FBF0F0564908600BE054480068C0B278
:1004900000F101004FF40041B1FBF0F05049086059
:1004A00000BF00BFBDE8F08720204F4908604948E1
:1004B000D0F8A00110F0200F05D000BF4A48006816
:1004C00010F0400FFAD00320444908604FF00000BC
:1004D0004049C1F8A801454908604FF001003C4976
:1004E00008604348434908604FF0AA004249086049
:1004F0004FF0550008604FF00100404908604FF090
:10050000AA003D4908604FF055003249C1F88C00FF
:1005100000BF2E48006810F0806FFAD003203749E2
:1005200008604FF0AA002B49C1F88C004FF055002D
:100530003149086000BF2548006800F04070B0F104
:10054000407FF8D123202E4908604FF0AA002149AE
:10055000C1F8AC004FF055002A4908604FF0010087
:10056000294908604FF0AA00264908604FF055005D
:100570001849C1F8AC0000BF2448006810F4806F2F
:10058000FAD00320204908604FF0AA001149C1F8B1
:10059000AC004FF055001B49086000BF1B480068C5
:1005A00000F44070B0F5407FF8D11948194908604F
:1005B0004FF000000749C1F8C8010846006820F460
:1005C000704040F4804008607047000088C00F40D1
:1005D0000CC10F4000C00F4000093D0004C10F4096
:1005E00000000010001BB700A0C10F40ACC10F40BD
:1005F0006300050084C00F408CC00F4080C00F40D6
:10060000A4C00F40ACC00F40A0C00F40A8C00F4016
:10061000DE872804C4C00F40002100E0491C81424D
:10062000FCD370474FF0F0606449C8614FF0006040
:10063000C8614000C861704710B504460B46FFF71B
:10064000F1FF5E48446123B94FF000605B49C86127
:1006500003E04FF00060594988614FF080505749DE
:1006600088611920FFF7D8FF4FF080505349C861C7
:1006700010BD70B504460E4604F0F005ED04314699
:100680002846FFF7D9FF04F00F05ED05314628464F
:10069000FFF7D2FF4FF47A70FFF7BEFF70BD00B5D1
:1006A0004748406847490840454948604348006812
:1006B00040F0FC5041490860FFF7B4FF4FF4486038
:1006C000FFF7AAFF00213320FFF7D3FF47F2305096
:1006D000FFF7A2FF00213220FFF7CBFF47F2305097
:1006E000FFF79AFF00212820FFF7C3FF47F23050A1
:1006F000FFF792FF00210C20FFF7BBFF4FF448707B
:10070000FFF78AFF00210620FFF7B3FF4FF4487080
:10071000FFF782FF00210120FFF7ABFF42F21070CC
:10072000FFF77AFF00BD70B5054600240BE02E5D93
:1007300001213046FFF79DFF641C102C03D10021DE
:10074000C020FFF796FF285D0028F0D170BD08B5E6
:10075000FFF7A5FF80201C49086000211A480068A7
:10076000FFF787FF44F62060FFF756FF1748FFF7B3
:10077000DAFF22E01148406D10F4805F1DD1FFF7D1
:10078000F5FC062190FBF1F201FB1200401CC0B207
:1007900000909DF800003030C0B20090C0200A499F
:1007A0000860002108480068FFF763FF44F62060F6
:1007B000FFF732FF6846FFF7B6FFDBE700C009200E
:1007C00000C00240FF3F00FC1400001004000010B5
:1007D0000B4910B5A1F17C020A4CC2E9371237214E
:1007E00006E000EB104342F82130074B00FB0340CA
:1007F0000B1EA1F10101F4DC10BD0120E8E70000AF
:1008000098000010E119D666CD0D01007546FFF77E
:1008100065FDAE4605006946534620F00700854653
:1008200018B020B5FFF7CAFCBDE820404FF0000625
:100830004FF000074FF000084FF0000B21F00701C8
:10084000AC46ACE8C009ACE8C009ACE8C009ACE80B
:10085000C0098D46704700007808000000000010B5
:100860001C00000008010000940800001C0000109B
:10087000440300002401000000E1F50544696365BC
:1008800020526573756C74000000000000000000C9
:040890000000000064
:04000005000000CD2A
:00000001FF
