:020000040000FA
:10000000B8020010690100007101000073010000D6
:100010007501000077010000790100000000000078
:100020000000000000000000000000007B01000054
:100030007D010000000000007F0100008101000040
:1000400083010000830100008301000083010000A0
:100050008301000083010000830100008301000090
:100060008301000083010000830100008301000080
:100070008301000083010000830100008301000070
:100080008301000083010000830100008301000060
:100090008301000083010000830100008301000050
:1000A0008301000083010000830100008301000040
:1000B0008301000083010000830100008301000030
:1000C00083010000830100008301000000F002F8BA
:1000D00000F03AF80AA090E8000C82448344AAF1A8
:1000E0000107DA4501D100F02FF8AFF2090EBAE8A6
:1000F0000F0013F0010F18BFFB1A43F0010318475C
:100100001C0900003C090000103A24BF78C878C1DF
:10011000FAD8520724BF30C830C144BF04680C600D
:10012000704700000023002400250026103A28BF55
:1001300078C1FBD8520728BF30C148BF0B60704759
:100140001FB51FBD10B510BD00F0A6F81146FFF792
:10015000F7FF00F01CFB00F0C4F803B4FFF7F2FF58
:1001600003BC00F055FC00000948804709480047DF
:10017000FEE7FEE7FEE7FEE7FEE7FEE7FEE7FEE757
:10018000FEE7FEE704480549034A054B70470000B7
:10019000A9040000CD000000B8000010B802001053
:1001A000B800001053EA020C00F069802DE9F04B12
:1001B0004FF00006002B1FBFB3FA83F503FA05F4D6
:1001C00024FA05F65E4012BF1643B2FA82F502FA2F
:1001D00005F4C5F120051EBF22FA05FC44EA0C0413
:1001E000203556EA044C4FEA144418BF641C4FF003
:1001F00000084FF00009904271EB030C39D300293D
:1002000019BFB1FA81F701FA07F6B0FA80F700FAE0
:1002100007F6C7F120071EBF20FA07FC46EA0C06C6
:100220002037B6FBF4FCA7EB0507103F07F01F0BC8
:10023000CBF120060CFA0BFB2CFA06F644BFB346B2
:100240000026202FA4BF5E464FF0000B5BEA060C91
:1002500008BF4FF0010B19EB0B09ABFB027C48EB1D
:100260000608C01B06FB02CC0BFB03CC71EB0C0198
:10027000C1E70B46024641464846BDE8F08B13B540
:100280004FF000004FF00001AFF30080BDE81C40CC
:100290007047704770477047754600F029F8AE46C2
:1002A00005006946534620F00700854618B020B582
:1002B000FFF768FFBDE820404FF000064FF0000751
:1002C0004FF000084FF0000B21F00701AC46ACE8FE
:1002D000C009ACE8C009ACE8C009ACE8C0098D466B
:1002E00070470446AFF300802046FFF736FF00005A
:1002F000004870475800001070470000FFFFFFFFE4
:100300002DE9F047B1480068C0F3016003287CD1B3
:10031000AF48006810F0030006D0012833D002284F
:100320005FD003282ED100E000BFA8480068C0F3CA
:10033000074000F101044FF00201A648D0F8880000
:10034000C0F30E0000F10100A1FB0001A24B4FF031
:10035000000CA0FB037901FB039100FB0C1122466A
:1003600063463846FFF71EFF05469C480068C0B24A
:1003700000F1010422464FF000032846FFF712FF68
:10038000974908605DE091480068C0F3074000F1BC
:1003900001044FF002018F48D0F88800C0F30E002E
:1003A00000F10100A1FB00108E4A4FF0000CA1FBF0
:1003B000027900FB029001FB0C012246634638469D
:1003C000FFF7F0FE054685480068C0B200F1010461
:1003D00022464FF000032846FFF7E4FE80490860FC
:1003E0002FE07A480068C0F3074000F101044FF0A5
:1003F00002017848D0F88800C0F30E0000F1010037
:10040000A1FB00124FF4004000E01BE04FF000039E
:10041000A1FB007902FB009001FB03012246384654
:10042000FFF7C0FE05466D480068C0B200F1010448
:1004300022464FF000032846FFF7B4FE68490860E3
:1004400000BF2FE06248006810F0030006D00128CA
:1004500010D0022819D0032823D100E000BF5F4844
:100460000068C0B200F101005B49B1FBF0F05C49EB
:10047000086016E059480068C0B200F1010059490F
:10048000B1FBF0F0564908600BE054480068C0B278
:1004900000F101004FF40041B1FBF0F05049086059
:1004A00000BF00BFBDE8F08720204F4908604948E1
:1004B000D0F8A00110F0200F05D000BF4A48006816
:1004C00010F0400FFAD00320444908604FF00000BC
:1004D0004049C1F8A801454908604FF001003C4976
:1004E00008604348434908604FF0AA004249086049
:1004F0004FF0550008604FF00100404908604FF090
:10050000AA003D4908604FF055003249C1F88C00FF
:1005100000BF2E48006810F0806FFAD003203749E2
:1005200008604FF0AA002B49C1F88C004FF055002D
:100530003149086000BF2548006800F04070B0F104
:10054000407FF8D123202E4908604FF0AA002149AE
:10055000C1F8AC004FF055002A4908604FF0010087
:10056000294908604FF0AA00264908604FF055005D
:100570001849C1F8AC0000BF2448006810F4806F2F
:10058000FAD00320204908604FF0AA001149C1F8B1
:10059000AC004FF055001B49086000BF1B480068C5
:1005A00000F44070B0F5407FF8D11948194908604F
:1005B0004FF000000749C1F8C8010846006820F460
:1005C000704040F4804008607047000088C00F40D1
:1005D0000CC10F4000C00F4000093D0004C10F4096
:1005E00000000010001BB700A0C10F40ACC10F40BD
:1005F0006300050084C00F408CC00F4080C00F40D6
:10060000A4C00F40ACC00F40A0C00F40A8C00F4016
:10061000DE872804C4C00F40002100E0491C81424D
:10062000FCD370474FF0F060E749C8614FF00060BD
:10063000C8614000C861704710B504460B46FFF71B
:10064000F1FFE148446123B94FF00060DE49C86121
:1006500003E04FF00060DC4988614FF08050DA49D8
:1006600088611920FFF7D8FF4FF08050D649C86144
:1006700010BD70B504460E4604F0F005ED04314699
:100680002846FFF7D9FF04F00F05ED05314628464F
:10069000FFF7D2FF4FF47A70FFF7BEFF70BD70B561
:1006A000054600240BE02E5D01213046FFF7E1FFF7
:1006B000641C102C03D10021C020FFF7DAFF285D55
:1006C0000028F0D170BD00B5C0484068C04908405E
:1006D000BE494860BC48006840F0FC50BA49086018
:1006E000FFF7A0FF4FF44860FFF796FF002133208B
:1006F000FFF7BFFF47F23050FFF78EFF0021322097
:10070000FFF7B7FF47F23050FFF786FF00212820A0
:10071000FFF7AFFF47F23050FFF77EFF00210C20BC
:10072000FFF7A7FF4FF44870FFF776FF0021062080
:10073000FFF79FFF4FF44870FFF76EFF0021012085
:10074000FFF797FF42F21070FFF766FF00BD9E486B
:10075000406BA04908600846006800F0F06008603F
:100760000846006890B101209B49087099480068CC
:10077000C00C9849086099480068800A9749086049
:1007800094480078097808439549087070478E4866
:10079000006C40F470508C4908640846006A20F0F0
:1007A000F06008620846006840F0FC500860FFF7FF
:1007B00039FF4FF44860FFF72FFFFFF784FF002158
:1007C0008020FFF756FF4FF44870FFF725FFF9E050
:1007D00047E001208349087039E082480078012809
:1007E00003D180028049086017E07E480078022823
:1007F00003D180027C4908600FE07A480078032822
:1008000004D14FF480507849086006E075480078BC
:10081000042802D1C00274490860734800686F4917
:1008200008604FF470506849C8656F480068886573
:10083000002069490870FFF78AFF6748007801289F
:1008400000D108E067480078401C66490870654898
:1008500000780528C1DB00BF5F480078012800D17F
:1008600000E0B6E700BF00206049086040E0604853
:100870005E490968405C5A490978884233D15D482D
:100880005A490968405C56490870084600783D2876
:1008900003D10120584908600EE0514800782B2808
:1008A00003D101205549086006E04D4800782D2805
:1008B00002D102205149086050480068401C05D10F
:1008C0004748007830384E4908600BE04B480068D4
:1008D000401C07D04848006820B9414800783038AB
:1008E0004849086008E041480068401C3F490860EA
:1008F0003E4800681028BAD300BF00210120FFF74E
:10090000B8FE4FF44870FFF787FE354800783E493F
:1009100008700020487088700846FFF7C0FE4FF44A
:100920007A70FFF779FE3448006801284AD13348CD
:100930000068012807D13248006832490968084434
:100940003249086006E02E4800682E490968401ABE
:100950002E4908602D480068092816DD2B480068DC
:100960000A2190FBF1F201FB120030302649487059
:10097000264800680A2190FBF1F0244908600846E7
:10098000007830302049087011E0204800680028C5
:1009900008DA2D201C4908701C480078C0F130008E
:1009A000487004E019480078303017490870002179
:1009B0000120FFF75EFE4FF44870FFF72DFE12484E
:1009C000FFF76DFE04E7000000C0092000C00240F0
:1009D000FF3F00FC540000103200001048000010DF
:1009E00033000010300000104400001040000010E0
:1009F000100000102000001008000010040000107B
:100A0000380000103C000010340000100C000010F2
:100A100001491820ABBEFEE7260002003C0A000098
:100A2000000000105800000008010000940A0000B7
:100A300058000010600200002401000000E1F505EC
:100A4000FFFFFFFF000000000000000011214181B6
:100A500012224282142444841828488830313233C8
:100A60003435363738392B2D3D44454600000000DB
:100A70000000000000000000000000000000000076
:100A80000000000000000000000000000000000066
:040A90000000000062
:04000005000000CD2A
:00000001FF
