:020000040000FA
:10000000B0020010690100007101000073010000DE
:100010007501000077010000790100000000000078
:100020000000000000000000000000007B01000054
:100030007D010000000000007F0100008101000040
:1000400083010000830100008301000083010000A0
:100050008301000083010000830100008301000090
:100060008301000083010000830100008301000080
:100070008301000083010000830100008301000070
:100080008301000083010000830100008301000060
:100090008301000083010000830100008301000050
:1000A0008301000083010000830100008301000040
:1000B0008301000083010000830100008301000030
:1000C00083010000830100008301000000F002F8BA
:1000D00000F03AF80AA090E8000C82448344AAF1A8
:1000E0000107DA4501D100F02FF8AFF2090EBAE8A6
:1000F0000F0013F0010F18BFFB1A43F0010318475C
:10010000F007000010080000103A24BF78C878C13A
:10011000FAD8520724BF30C830C144BF04680C600D
:10012000704700000023002400250026103A28BF55
:1001300078C1FBD8520728BF30C148BF0B60704759
:100140001FB51FBD10B510BD00F0A6F81146FFF792
:10015000F7FF00F01CFB00F0C4F803B4FFF7F2FF58
:1001600003BC00F0BFFB0000094880470948004776
:10017000FEE7FEE7FEE7FEE7FEE7FEE7FEE7FEE757
:10018000FEE7FEE704480549034A054B70470000B7
:10019000A9040000CD000000B0000010B002001063
:1001A000B000001053EA020C00F069802DE9F04B1A
:1001B0004FF00006002B1FBFB3FA83F503FA05F4D6
:1001C00024FA05F65E4012BF1643B2FA82F502FA2F
:1001D00005F4C5F120051EBF22FA05FC44EA0C0413
:1001E000203556EA044C4FEA144418BF641C4FF003
:1001F00000084FF00009904271EB030C39D300293D
:1002000019BFB1FA81F701FA07F6B0FA80F700FAE0
:1002100007F6C7F120071EBF20FA07FC46EA0C06C6
:100220002037B6FBF4FCA7EB0507103F07F01F0BC8
:10023000CBF120060CFA0BFB2CFA06F644BFB346B2
:100240000026202FA4BF5E464FF0000B5BEA060C91
:1002500008BF4FF0010B19EB0B09ABFB027C48EB1D
:100260000608C01B06FB02CC0BFB03CC71EB0C0198
:10027000C1E70B46024641464846BDE8F08B13B540
:100280004FF000004FF00001AFF30080BDE81C40CC
:100290007047704770477047754600F029F8AE46C2
:1002A00005006946534620F00700854618B020B582
:1002B000FFF768FFBDE820404FF000064FF0000751
:1002C0004FF000084FF0000B21F00701AC46ACE8FE
:1002D000C009ACE8C009ACE8C009ACE8C0098D466B
:1002E00070470446AFF300802046FFF736FF00005A
:1002F000004870475000001070470000FFFFFFFFEC
:100300002DE9F047B1480068C0F3016003287CD1B3
:10031000AF48006810F0030006D0012833D002284F
:100320005FD003282ED100E000BFA8480068C0F3CA
:10033000074000F101044FF00201A648D0F8880000
:10034000C0F30E0000F10100A1FB0001A24B4FF031
:10035000000CA0FB037901FB039100FB0C1122466A
:1003600063463846FFF71EFF05469C480068C0B24A
:1003700000F1010422464FF000032846FFF712FF68
:10038000974908605DE091480068C0F3074000F1BC
:1003900001044FF002018F48D0F88800C0F30E002E
:1003A00000F10100A1FB00108E4A4FF0000CA1FBF0
:1003B000027900FB029001FB0C012246634638469D
:1003C000FFF7F0FE054685480068C0B200F1010461
:1003D00022464FF000032846FFF7E4FE80490860FC
:1003E0002FE07A480068C0F3074000F101044FF0A5
:1003F00002017848D0F88800C0F30E0000F1010037
:10040000A1FB00124FF4004000E01BE04FF000039E
:10041000A1FB007902FB009001FB03012246384654
:10042000FFF7C0FE05466D480068C0B200F1010448
:1004300022464FF000032846FFF7B4FE68490860E3
:1004400000BF2FE06248006810F0030006D00128CA
:1004500010D0022819D0032823D100E000BF5F4844
:100460000068C0B200F101005B49B1FBF0F05C49EB
:10047000086016E059480068C0B200F1010059490F
:10048000B1FBF0F0564908600BE054480068C0B278
:1004900000F101004FF40041B1FBF0F05049086059
:1004A00000BF00BFBDE8F08720204F4908604948E1
:1004B000D0F8A00110F0200F05D000BF4A48006816
:1004C00010F0400FFAD00320444908604FF00000BC
:1004D0004049C1F8A801454908604FF001003C4976
:1004E00008604348434908604FF0AA004249086049
:1004F0004FF0550008604FF00100404908604FF090
:10050000AA003D4908604FF055003249C1F88C00FF
:1005100000BF2E48006810F0806FFAD003203749E2
:1005200008604FF0AA002B49C1F88C004FF055002D
:100530003149086000BF2548006800F04070B0F104
:10054000407FF8D123202E4908604FF0AA002149AE
:10055000C1F8AC004FF055002A4908604FF0010087
:10056000294908604FF0AA00264908604FF055005D
:100570001849C1F8AC0000BF2448006810F4806F2F
:10058000FAD00320204908604FF0AA001149C1F8B1
:10059000AC004FF055001B49086000BF1B480068C5
:1005A00000F44070B0F5407FF8D11948194908604F
:1005B0004FF000000749C1F8C8010846006820F460
:1005C000704040F4804008607047000088C00F40D1
:1005D0000CC10F4000C00F4000093D0004C10F4096
:1005E00000000010001BB700A0C10F40ACC10F40BD
:1005F0006300050084C00F408CC00F4080C00F40D6
:10060000A4C00F40ACC00F40A0C00F40A8C00F4016
:10061000DE872804C4C00F40002100E0491C81424D
:10062000FCD370474FF0F060A149C8614FF0006003
:10063000C8614000C861704710B504460B46FFF71B
:10064000F1FF9B48446123B94FF000609849C861AD
:1006500003E04FF00060964988614FF08050944964
:1006600088611920FFF7D8FF4FF080509049C8618A
:1006700010BD70B504460E4604F0F005ED04314699
:100680002846FFF7D9FF04F00F05ED05314628464F
:10069000FFF7D2FF4FF47A70FFF7BEFF70BD00B5D1
:1006A000844840688449084082494860804800681E
:1006B00040F0FC507E490860FFF7B4FF4FF44860FB
:1006C000FFF7AAFF00213320FFF7D3FF47F2305096
:1006D000FFF7A2FF00213220FFF7CBFF47F2305097
:1006E000FFF79AFF00212820FFF7C3FF47F23050A1
:1006F000FFF792FF00210C20FFF7BBFF4FF448707B
:10070000FFF78AFF00210620FFF7B3FF4FF4487080
:10071000FFF782FF00210120FFF7ABFF42F21070CC
:10072000FFF77AFF00BD70B5054600240BE02E5D93
:1007300001213046FFF79DFF641C102C03D10021DE
:10074000C020FFF796FF285D0028F0D170BD584803
:10075000406B5A4908600846006800F0F060086085
:100760000846006890B10120554908705348006858
:10077000C00C5249086053480068800A514908601B
:100780004E480078097808434F4908707047484838
:10079000006C40F47050464908640846006A20F036
:1007A000F06008620846006C40F0FC500864FFF7F7
:1007B00039FF4FF44860FFF72FFFFFF770FF00216C
:1007C0008020FFF756FF4FF44870FFF725FF3F48A2
:1007D000FFF7A9FF6AE001203D49087039E03C4875
:1007E0000078012803D180023A49086017E03848B0
:1007F0000078022803D18002364908600FE03448AF
:100800000078032804D14FF480503249086006E094
:100810002F480078042802D1C0022E4908602D48D4
:100820000068284908604FF470502149C86529487C
:1008300000688865002022490870FFF788FF20487B
:100840000078012800D108E021480078401C2049A8
:1008500008701F4800780528C1DB00BF00201E4932
:10086000086013E01D481C490968405C1649097876
:10087000884206D11A4818490968405C1249087034
:1008800008E015480068401C1349086012480068D9
:100890001028E7D300BF0021C020FFF7EAFE4FF485
:1008A0004870FFF7B9FE0848FFF73DFF93E70000E7
:1008B00000C0092000C00240FF3F00FC4C000010B7
:1008C000330000104000001034000010040000103D
:1008D000310000103C000010380000101100001022
:1008E0002100001001491820ABBEFEE726000200DF
:1008F0001009000000000010500000000801000076
:100900006009000050000010600200002401000097
:1009100000E1F5054B455920505245535345443DA0
:100920000011214181122242821424448418284853
:1009300088303132333435363738394142434445D3
:100940004600000000000000000000000000000061
:100950000000000000000000000000000000000097
:04000005000000CD2A
:00000001FF
